{
  "contractName": "Contract1",
  "abi": [
    {
      "inputs": [],
      "payable": false,
      "stateMutability": "nonpayable",
      "type": "constructor"
    },
    {
      "constant": true,
      "inputs": [],
      "name": "lastCaller",
      "outputs": [
        {
          "internalType": "address",
          "name": "",
          "type": "address"
        }
      ],
      "payable": false,
      "stateMutability": "view",
      "type": "function"
    },
    {
      "constant": false,
      "inputs": [],
      "name": "setLastCaller",
      "outputs": [],
      "payable": false,
      "stateMutability": "nonpayable",
      "type": "function"
    }
  ],
  "bytecode": "0x608060405234801561001057600080fd5b50336000806101000a81548173ffffffffffffffffffffffffffffffffffffffff021916908373ffffffffffffffffffffffffffffffffffffffff1602179055506101c8806100606000396000f3fe608060405234801561001057600080fd5b50600436106100365760003560e01c80632113522a1461003b57806397e4784614610085575b600080fd5b61004361008f565b604051808273ffffffffffffffffffffffffffffffffffffffff1673ffffffffffffffffffffffffffffffffffffffff16815260200191505060405180910390f35b61008d6100b4565b005b6000809054906101000a900473ffffffffffffffffffffffffffffffffffffffff1681565b600080339050803b915060008263ffffffff161461011d576040517f08c379a00000000000000000000000000000000000000000000000000000000081526004018080602001828103825260328152602001806101626032913960400191505060405180910390fd5b336000806101000a81548173ffffffffffffffffffffffffffffffffffffffff021916908373ffffffffffffffffffffffffffffffffffffffff160217905550505056fe63616e6e6f742063616c6c20746869732066756e6374696f6e2066726f6d206120636f6e7472616374206164647265737321a265627a7a723158203c3b223073c6d35fa0d413a96d9e9586e94da81a9beab8e36595f979b295e29564736f6c63430005100032",
  "source": "// SPDX-License-Identifier: MIT\r\npragma solidity ^0.5.0;\r\n\r\ncontract Contract1 {\r\n    address public lastCaller;\r\n\r\n    constructor() public {\r\n        // deployer account address will be first value\r\n        lastCaller = msg.sender;\r\n    }\r\n\r\n    modifier notContract() {\r\n        uint32 size;\r\n        address sender = msg.sender;\r\n        assembly {\r\n            size := extcodesize(sender)\r\n        }\r\n        // if size > 0, it is a contract address\r\n        // modifier will pass if it is NOT a contract address\r\n        require(size == 0, \"cannot call this function from a contract address!\");\r\n        _;\r\n    }\r\n\r\n    function setLastCaller() public notContract {\r\n        // function will set the value of lastCaller if modifier passes\r\n        // lastCaller should always be an account address if our modifier is working\r\n        lastCaller = msg.sender;\r\n    }\r\n\r\n}",
  "sourcePath": "C:\\Users\\arvin\\Documents\\1Personal\\Education\\Code Workspace\\reentrancy-guard-attack\\src\\contracts\\Contract1.sol",
  "compiler": {
    "name": "solc",
    "version": "0.5.16+commit.9c3226ce.Emscripten.clang"
  },
  "schemaVersion": "3.2.3",
  "updatedAt": "2023-01-15T17:25:17.237Z",
  "networkType": "ethereum",
  "devdoc": {
    "methods": {}
  },
  "userdoc": {
    "methods": {}
  }
}