{
  "contractName": "Contract2",
  "abi": [
    {
      "inputs": [
        {
          "internalType": "contract Contract1",
          "name": "_contract1",
          "type": "address"
        }
      ],
      "payable": false,
      "stateMutability": "nonpayable",
      "type": "constructor"
    },
    {
      "constant": true,
      "inputs": [],
      "name": "contract1",
      "outputs": [
        {
          "internalType": "contract Contract1",
          "name": "",
          "type": "address"
        }
      ],
      "payable": false,
      "stateMutability": "view",
      "type": "function"
    },
    {
      "constant": false,
      "inputs": [],
      "name": "callContract1",
      "outputs": [],
      "payable": false,
      "stateMutability": "nonpayable",
      "type": "function"
    }
  ],
  "bytecode": "0x608060405234801561001057600080fd5b506040516102003803806102008339818101604052602081101561003357600080fd5b8101908080519060200190929190505050806000806101000a81548173ffffffffffffffffffffffffffffffffffffffff021916908373ffffffffffffffffffffffffffffffffffffffff1602179055505061016c806100946000396000f3fe608060405234801561001057600080fd5b50600436106100365760003560e01c80634c62d88c1461003b57806354e3afa114610085575b600080fd5b61004361008f565b604051808273ffffffffffffffffffffffffffffffffffffffff1673ffffffffffffffffffffffffffffffffffffffff16815260200191505060405180910390f35b61008d6100b4565b005b6000809054906101000a900473ffffffffffffffffffffffffffffffffffffffff1681565b6000809054906101000a900473ffffffffffffffffffffffffffffffffffffffff1673ffffffffffffffffffffffffffffffffffffffff166397e478466040518163ffffffff1660e01b8152600401600060405180830381600087803b15801561011d57600080fd5b505af1158015610131573d6000803e3d6000fd5b5050505056fea265627a7a723158200b0bd41b24dae4665c23e1801bb819ae16855198db9a99e3daa10adf06a9958d64736f6c63430005100032",
  "source": "// SPDX-License-Identifier: MIT\r\npragma solidity ^0.5.0;\r\nimport \"./Contract1.sol\";\r\n\r\ncontract Contract2 {\r\n    Contract1 public contract1;\r\n\r\n    constructor(Contract1 _contract1) public {\r\n        contract1 = _contract1;\r\n    }\r\n\r\n    function callContract1() public {\r\n        contract1.setLastCaller();\r\n        // call will be unable to penetrate the modifier in contract 1\r\n        // this can be verified by calling lastCaller from contract 1 after trying this from contract 2\r\n        // transaction will fail with, \"cannot call this function from a contract address!\" error message.\r\n        // lastCaller value in contract 1 will be unchanged\r\n    }\r\n\r\n}",
  "sourcePath": "C:/Users/arvin/Documents/1Personal/Education/Code Workspace/reentrancy-guard-attack/src/contracts/Contract2.sol",
  "compiler": {
    "name": "solc",
    "version": "0.5.16+commit.9c3226ce.Emscripten.clang"
  },
  "schemaVersion": "3.2.3",
  "updatedAt": "2023-01-15T17:25:17.240Z",
  "networkType": "ethereum",
  "devdoc": {
    "methods": {}
  },
  "userdoc": {
    "methods": {}
  }
}