{
  "contractName": "Contract3",
  "abi": [
    {
      "inputs": [
        {
          "internalType": "contract Contract1",
          "name": "_contract1",
          "type": "address"
        }
      ],
      "payable": false,
      "stateMutability": "nonpayable",
      "type": "constructor"
    },
    {
      "constant": true,
      "inputs": [],
      "name": "contract1",
      "outputs": [
        {
          "internalType": "contract Contract1",
          "name": "",
          "type": "address"
        }
      ],
      "payable": false,
      "stateMutability": "view",
      "type": "function"
    }
  ],
  "bytecode": "0x608060405234801561001057600080fd5b506040516101e33803806101e38339818101604052602081101561003357600080fd5b8101908080519060200190929190505050806000806101000a81548173ffffffffffffffffffffffffffffffffffffffff021916908373ffffffffffffffffffffffffffffffffffffffff1602179055506000809054906101000a900473ffffffffffffffffffffffffffffffffffffffff1673ffffffffffffffffffffffffffffffffffffffff166397e478466040518163ffffffff1660e01b8152600401600060405180830381600087803b1580156100ed57600080fd5b505af1158015610101573d6000803e3d6000fd5b505050505060cf806101146000396000f3fe6080604052348015600f57600080fd5b506004361060285760003560e01c80634c62d88c14602d575b600080fd5b60336075565b604051808273ffffffffffffffffffffffffffffffffffffffff1673ffffffffffffffffffffffffffffffffffffffff16815260200191505060405180910390f35b6000809054906101000a900473ffffffffffffffffffffffffffffffffffffffff168156fea265627a7a7231582089bbac766ce4adbf1ff6fe7296e9e45be59675413114ee264ac2bdbe77c7616f64736f6c63430005100032",
  "source": "// SPDX-License-Identifier: MIT\r\npragma solidity ^0.5.0;\r\nimport \"./Contract1.sol\";\r\n\r\ncontract Contract3 {\r\n    Contract1 public contract1;\r\n\r\n    constructor(Contract1 _contract1) public {\r\n        contract1 = _contract1;\r\n        contract1.setLastCaller();\r\n        // calling the function from the constructor will penetrate the modifier in contract 1\r\n        // this can be verified by calling lastCaller from contract 1 after trying this from contract 3\r\n        // lastCaller value in contract 1 would have changed to contract address of contract 3\r\n        // this should not have been allowed by the modifier!\r\n    }\r\n\r\n}",
  "sourcePath": "C:/Users/arvin/Documents/1Personal/Education/Code Workspace/reentrancy-guard-attack/src/contracts/Contract3.sol",
  "compiler": {
    "name": "solc",
    "version": "0.5.16+commit.9c3226ce.Emscripten.clang"
  },
  "schemaVersion": "3.2.3",
  "updatedAt": "2023-01-15T17:25:17.242Z",
  "networkType": "ethereum",
  "devdoc": {
    "methods": {}
  },
  "userdoc": {
    "methods": {}
  }
}